:100000000C9472000C948F000C948F000C948F0051
:100010000C948F000C948F000C948F000C948F0024
:100020000C948F000C948F000C948F000C948F0014
:100030000C948F000C948F000C948F000C948F0004
:100040000C948F000C948F000C948F000C948F00F4
:100050000C948F00A900A000A300A600AB00AB0089
:10006000AB00AB00AB00AB00AB00AB00AB00AB0038
:10007000AB00AB00AB00AB00AB00AB00AB00AB0028
:10008000AB00AB00AB00AB00AB00AB00AB00AB0018
:10009000AB00AB00A900A000A300A600E300DA00BB
:1000A000DD00E000E500E500E500E500E500E50035
:1000B000E500E500E500E500E500E500E500E50018
:1000C000E500E500E500E500E500E500E500E50008
:1000D000E500E500E500E500E500E500E300DA0005
:1000E000DD00E00011241FBECFE5D4E0DEBFCDBFB0
:1000F00010E0A0E6B0E0E2ECF6E002C005900D9260
:10010000AE3CB107D9F720E0AEECB0E001C01D92E3
:10011000AC3EB207E1F70E94AC020C945F030C9472
:100120000000CF93DF93EC01488150E04154510926
:100130004432510580F4465D5F4FFA010C94370359
:10014000A7E3B0E008C0A4E3B0E005C0A1E3B0E0DD
:1001500002C0AAE3B0E08A81813061F481E090E0DE
:10016000098002C0880F991F0A94E2F79C91892B9D
:100170008C930EC081110CC081E090E0098002C018
:10018000880F991F0A94E2F780959C9189238C939C
:10019000DF91CF910895CF93DF93EC01488150E038
:1001A000415451094432510580F4425B5F4FFA01DA
:1001B0000C943703A8E3B0E008C0A5E3B0E005C0A5
:1001C000A2E3B0E002C0ABE3B0E08B81813061F428
:1001D00081E090E0098002C0880F991F0A94E2F73D
:1001E0009C91892B8C930EC081110CC081E090E012
:1001F000098002C0880F991F0A94E2F780959C91AC
:1002000089238C93DF91CF910895E091CF00F0E0A6
:10021000EE0FFF1FEE0FFF1FE452FF4F808361833D
:1002200081E082831382CF010E9491008091CF00F0
:100230008F5F8093CF000895E091CE00F0E0EE0F45
:10024000FF1FEE0FFF1FE053FF4F8083618381E0AC
:1002500082831382CF010E9491008091CE008F5F34
:100260008093CE000895CF92DF92EF92FF920F938A
:100270001F93CF93DF93E82E611107C01092D30034
:1002800080ED90E00E94CB0007C081E08093D30016
:1002900080ED90E00E94CB001092D70084ED90E0BA
:1002A0000E94CB00CE2CC694C694C694C694D12C82
:1002B0000FED10E0C0E0D0E096010C2E02C03595A5
:1002C00027950A94E2F72170F8012083C80103976B
:1002D0000E94CB0021960C5F1F4FC430D10561F7FF
:1002E00081E08093DB0088ED90E00E94CB0089EFF5
:1002F00090E00197F1F700C000001092DB0088ED5C
:1003000090E00E94CB000FED10E0C0E0D0E0F12CB7
:1003100097010C2E02C0359527950A94E2F72170BB
:10032000F8012083C80103970E94CB0021960C5F3F
:100330001F4FC430D10561F781E08093DB0088ED69
:1003400090E00E94CB0089EF90E00197F1F700C0A8
:1003500000001092DB0088ED90E00E94CB00DF915E
:10036000CF911F910F91FF90EF90DF90CF90089564
:1003700060E00E9433010895CF93C82F62E081E4CA
:100380000E94050167E081E40E94050161E082E4CA
:100390000E94050166E082E40E94050160E083E4BA
:1003A0000E941C0160E084E40E941C0164E084E47B
:1003B0000E941C0182E00E94B80188E20E94B801FC
:1003C0008C2F0E94B80181E00E94B801CF9108955E
:1003D00061E00E9433010895CF93DF93EC0188819F
:1003E000882331F021960E94E80189918111FBCF89
:1003F000DF91CF9108954F925F926F927F92AF926B
:10040000BF92CF92DF92EF92FF920F931F93CF9301
:10041000DF93CDB7DEB768970FB6F894DEBF0FBE97
:10042000CDBF6D8B7E8B8F8B988F8EEF840F82323A
:1004300010F0198259C08D899E89AF89B88DBB2370
:100440003CF4B095A095909581959F4FAF4FBF4FCD
:10045000BC01CD018E010F5F1F4F442E512C612C2A
:10046000712C580178012FEFE21AF20A6701A301FB
:1004700092010E941803FB01E05AFF4F8081D801CE
:100480008C93622F732F842F952F61157105810531
:10049000910511F08701E5CF0D891E892F89388DCF
:1004A000332344F4650112E0C10ED11C8DE2D50165
:1004B00011968C93F60110829E012F5F3F4FC6016B
:1004C00001972817390780F4C901A9012291DA019F
:1004D0003D91AD013083DC012D93CD019F01215071
:1004E00031094217530790F3CE0101960E94EC01A7
:1004F00068960FB6F894DEBF0FBECDBFDF91CF91E7
:100500001F910F91FF90EF90DF90CF90BF90AF9031
:100510007F906F905F904F900895823031F08330DC
:1005200031F0813029F4605C03C0605F01C0605B22
:10053000862F80680E94B8010895CF93DF93EA0167
:100540000E948D02CE010E94EC01DF91CF910895AF
:1005500081E00E94B80108958CE00E94BC01D4E1C2
:1005600045E850E064E080E00E949D0261E081E0A7
:100570000E948D0282E990E00E94EC012FED83E958
:1005800094E0215080409040E1F700C000000E94BC
:10059000A802CD2F0E94A80245EA50E06C2F80E00F
:1005A0000E949D028BE792E90197F1F700C00000DD
:1005B000C15080F79FED23E984E0915020408040B6
:1005C000E1F700C000000E94A80265E080E00E9400
:1005D0008D024AE062E170E080E090E00E94FB0161
:1005E0008FE20E94E8014AE061E070E080E090E084
:1005F0000E94FB018FE20E94E8014AE06FED77E084
:1006000080E090E00E94FB0161E081E00E948D02A9
:100610008AEB90E00E94EC019FED23E984E0915089
:1006200020408040E1F700C000000E94A80298CF5F
:10063000052E97FB1EF400940E942F0357FD07D050
:100640000E943D0307FC03D04EF40C942F035095F9
:100650004095309521953F4F4F4F5F4F08959095AE
:100660008095709561957F4F8F4F9F4F0895EE0F46
:10067000FF1F0590F491E02D0994A1E21A2EAA1B08
:10068000BB1BFD010DC0AA1FBB1FEE1FFF1FA21742
:10069000B307E407F50720F0A21BB30BE40BF50B3F
:1006A000661F771F881F991F1A9469F760957095C8
:1006B000809590959B01AC01BD01CF010895F89400
:0206C000FFCF6A
:1006C20030313233343536373839616263646566C6
:1006D2006768696A6B6C6D6E6F7071727374757630
:1006E2007778797A0048656C6C6F20576F726C640A
:1006F200210054455354494E47204C434420445210
:100702004956455200446F6E652062792041796DE9
:10071200616E20596F756E697300676974687562DE
:0E0722002F61796D616E796F756E69730000DD
:00000001FF
