:100000000C9472000C948F000C948F000C948F0051
:100010000C948F000C948F000C948F000C948F0024
:100020000C948F000C948F000C948F000C948F0014
:100030000C948F000C948F000C948F000C948F0004
:100040000C948F000C948F000C948F000C948F00F4
:100050000C948F00A900A000A300A600AB00AB0089
:10006000AB00AB00AB00AB00AB00AB00AB00AB0038
:10007000AB00AB00AB00AB00AB00AB00AB00AB0028
:10008000AB00AB00AB00AB00AB00AB00AB00AB0018
:10009000AB00AB00A900A000A300A600E300DA00BB
:1000A000DD00E000E500E500E500E500E500E50035
:1000B000E500E500E500E500E500E500E500E50018
:1000C000E500E500E500E500E500E500E500E50008
:1000D000E500E500E500E500E500E500E300DA0005
:1000E000DD00E00011241FBECFE5D4E0DEBFCDBFB0
:1000F00010E0A0E6B0E0E2E7F6E002C005900D9265
:10010000AE3CB107D9F720E0AEECB0E001C01D92E3
:10011000AC3FB207E1F70E9484020C9437030C94C1
:100120000000CF93DF93EC01488150E04154510926
:100130004432510580F4465D5F4FFA010C940F0381
:10014000A7E3B0E008C0A4E3B0E005C0A1E3B0E0DD
:1001500002C0AAE3B0E08A81813061F481E090E0DE
:10016000098002C0880F991F0A94E2F79C91892B9D
:100170008C930EC081110CC081E090E0098002C018
:10018000880F991F0A94E2F780959C9189238C939C
:10019000DF91CF910895CF93DF93EC01488150E038
:1001A000415451094432510580F4425B5F4FFA01DA
:1001B0000C940F03A8E3B0E008C0A5E3B0E005C0CD
:1001C000A2E3B0E002C0ABE3B0E08B81813061F428
:1001D00081E090E0098002C0880F991F0A94E2F73D
:1001E0009C91892B8C930EC081110CC081E090E012
:1001F000098002C0880F991F0A94E2F780959C91AC
:1002000089238C93DF91CF910895E091CF00F0E0A6
:10021000EE0FFF1FEE0FFF1FE452FF4F808361833D
:1002200081E082831382CF010E9491008091CF00F0
:100230008F5F8093CF000895E091CE00F0E0EE0F45
:10024000FF1FEE0FFF1FE053FF4F8083618381E0AC
:1002500082831382CF010E9491008091CE008F5F34
:100260008093CE000895EF92FF920F931F93CF9348
:10027000DF93E82E611107C01092D30080ED90E06B
:100280000E94CB0007C081E08093D30080ED90E016
:100290000E94CB001092D70084ED90E00E94CB002A
:1002A0000FED10E0C0E0D0E0F12C97010C2E02C061
:1002B000359527950A94E2F72170F8012083C8014B
:1002C00003970E94CB0021960C5F1F4FC830D105C9
:1002D00061F781E08093DB0088ED90E00E94CB0025
:1002E00089EF90E00197F1F700C000001092DB0069
:1002F00088ED90E00E94CB00DF91CF911F910F918C
:10030000FF90EF90089560E00E9433010895CF932D
:10031000C82F64E083E40E94050166E083E40E9444
:10032000050160E084E40E94050161E084E40E942C
:10033000050164E084E40E94050165E084E40E9414
:10034000050166E084E40E94050167E084E40E9400
:10035000050160E083E40E941C0161E083E40E94E7
:100360001C0162E083E40E941C0188E30E94830177
:100370008C2F0E94830181E00E948301CF91089518
:1003800061E00E9433010895CF93DF93EC018881EF
:10039000882331F021960E94C00189918111FBCF01
:1003A000DF91CF9108954F925F926F927F92AF92BB
:1003B000BF92CF92DF92EF92FF920F931F93CF9352
:1003C000DF93CDB7DEB768970FB6F894DEBF0FBEE8
:1003D000CDBF6D8B7E8B8F8B988F8EEF840F82328B
:1003E00010F0198259C08D899E89AF89B88DBB23C1
:1003F0003CF4B095A095909581959F4FAF4FBF4F1E
:10040000BC01CD018E010F5F1F4F442E512C612C7A
:10041000712C580178012FEFE21AF20A6701A3014B
:1004200092010E94F002FB01E05AFF4F8081D80147
:100430008C93622F732F842F952F61157105810581
:10044000910511F08701E5CF0D891E892F89388D1F
:10045000332344F4650112E0C10ED11C8DE2D501B5
:1004600011968C93F60110829E012F5F3F4FC601BB
:1004700001972817390780F4C901A9012291DA01EF
:100480003D91AD013083DC012D93CD019F012150C1
:1004900031094217530790F3CE0101960E94C4011F
:1004A00068960FB6F894DEBF0FBECDBFDF91CF9137
:1004B0001F910F91FF90EF90DF90CF90BF90AF9082
:1004C0007F906F905F904F900895823031F083302D
:1004D00031F0813029F4605C03C0605F01C0605B73
:1004E000862F80680E9483010895CF93DF93EA01ED
:1004F0000E946502CE010E94C401DF91CF91089550
:1005000081E00E94830108958CE00E948701D4E17C
:1005100045E850E064E080E00E94750261E081E01F
:100520000E94650282E990E00E94C4012FED83E9F8
:1005300094E0215080409040E1F700C000000E940C
:100540008002CD2F0E94800245EA50E06C2F80E0AF
:100550000E9475028BE792E90197F1F700C0000055
:10056000C15080F79FED23E984E091502040804006
:10057000E1F700C000000E94800265E080E00E9478
:1005800065024AE062E170E080E090E00E94D30101
:100590008FE20E94C0014AE061E070E080E090E0FC
:1005A0000E94D3018FE20E94C0014AE06FED77E024
:1005B00080E090E00E94D30161E081E00E9465024A
:1005C0008AEB90E00E94C4019FED23E984E0915002
:1005D00020408040E1F700C000000E94800298CFD8
:1005E000052E97FB1EF400940E94070357FD07D0C9
:1005F0000E94150307FC03D04EF40C94070350959A
:100600004095309521953F4F4F4F5F4F08959095FE
:100610008095709561957F4F8F4F9F4F0895EE0F96
:10062000FF1F0590F491E02D0994A1E21A2EAA1B58
:10063000BB1BFD010DC0AA1FBB1FEE1FFF1FA21792
:10064000B307E407F50720F0A21BB30BE40BF50B8F
:10065000661F771F881F991F1A9469F76095709518
:10066000809590959B01AC01BD01CF010895F89450
:02067000FFCFBA
:100672003031323334353637383961626364656616
:100682006768696A6B6C6D6E6F7071727374757680
:100692007778797A0048656C6C6F20576F726C645A
:1006A200210054455354494E47204C434420445260
:1006B2004956455200446F6E652062792041796D3A
:1006C200616E20596F756E6973006769746875622F
:0E06D2002F61796D616E796F756E697300002E
:00000001FF
